{
  "_format": "hh-sol-artifact-1",
  "contractName": "BudgetDAODistributor",
  "sourceName": "contracts/treasury/BudgetDAODistributor.sol",
  "abi": [
    {
      "inputs": [
        {
          "internalType": "address",
          "name": "token",
          "type": "address"
        }
      ],
      "stateMutability": "nonpayable",
      "type": "constructor"
    },
    {
      "anonymous": false,
      "inputs": [
        {
          "indexed": true,
          "internalType": "address",
          "name": "to",
          "type": "address"
        },
        {
          "indexed": false,
          "internalType": "uint256",
          "name": "weiAmount",
          "type": "uint256"
        }
      ],
      "name": "BudgetWithdrawn",
      "type": "event"
    },
    {
      "anonymous": false,
      "inputs": [
        {
          "indexed": true,
          "internalType": "address",
          "name": "previousOwner",
          "type": "address"
        },
        {
          "indexed": true,
          "internalType": "address",
          "name": "newOwner",
          "type": "address"
        }
      ],
      "name": "OwnershipTransferred",
      "type": "event"
    },
    {
      "anonymous": false,
      "inputs": [
        {
          "indexed": false,
          "internalType": "address",
          "name": "account",
          "type": "address"
        }
      ],
      "name": "Paused",
      "type": "event"
    },
    {
      "anonymous": false,
      "inputs": [
        {
          "indexed": true,
          "internalType": "address",
          "name": "contributor",
          "type": "address"
        },
        {
          "indexed": false,
          "internalType": "uint256",
          "name": "weiAmount",
          "type": "uint256"
        }
      ],
      "name": "RewardsAssigned",
      "type": "event"
    },
    {
      "anonymous": false,
      "inputs": [
        {
          "indexed": true,
          "internalType": "address",
          "name": "contributor",
          "type": "address"
        },
        {
          "indexed": false,
          "internalType": "uint256",
          "name": "weiAmount",
          "type": "uint256"
        }
      ],
      "name": "RewardsReleased",
      "type": "event"
    },
    {
      "anonymous": false,
      "inputs": [
        {
          "indexed": true,
          "internalType": "address",
          "name": "contributor",
          "type": "address"
        },
        {
          "indexed": false,
          "internalType": "uint256",
          "name": "weiAmount",
          "type": "uint256"
        }
      ],
      "name": "RewardsReversed",
      "type": "event"
    },
    {
      "anonymous": false,
      "inputs": [
        {
          "indexed": false,
          "internalType": "address",
          "name": "account",
          "type": "address"
        }
      ],
      "name": "Unpaused",
      "type": "event"
    },
    {
      "inputs": [
        {
          "internalType": "address",
          "name": "contributor",
          "type": "address"
        },
        {
          "internalType": "uint256",
          "name": "weiAmount",
          "type": "uint256"
        }
      ],
      "name": "assign",
      "outputs": [],
      "stateMutability": "nonpayable",
      "type": "function"
    },
    {
      "inputs": [
        {
          "internalType": "address",
          "name": "newManager",
          "type": "address"
        }
      ],
      "name": "assignManager",
      "outputs": [],
      "stateMutability": "nonpayable",
      "type": "function"
    },
    {
      "inputs": [],
      "name": "availableBudget",
      "outputs": [
        {
          "internalType": "uint256",
          "name": "",
          "type": "uint256"
        }
      ],
      "stateMutability": "view",
      "type": "function"
    },
    {
      "inputs": [],
      "name": "manager",
      "outputs": [
        {
          "internalType": "address",
          "name": "",
          "type": "address"
        }
      ],
      "stateMutability": "view",
      "type": "function"
    },
    {
      "inputs": [],
      "name": "owner",
      "outputs": [
        {
          "internalType": "address",
          "name": "",
          "type": "address"
        }
      ],
      "stateMutability": "view",
      "type": "function"
    },
    {
      "inputs": [],
      "name": "pause",
      "outputs": [],
      "stateMutability": "nonpayable",
      "type": "function"
    },
    {
      "inputs": [],
      "name": "paused",
      "outputs": [
        {
          "internalType": "bool",
          "name": "",
          "type": "bool"
        }
      ],
      "stateMutability": "view",
      "type": "function"
    },
    {
      "inputs": [
        {
          "internalType": "address payable",
          "name": "contributor",
          "type": "address"
        },
        {
          "internalType": "uint256",
          "name": "weiAmount",
          "type": "uint256"
        }
      ],
      "name": "release",
      "outputs": [],
      "stateMutability": "nonpayable",
      "type": "function"
    },
    {
      "inputs": [],
      "name": "renounceOwnership",
      "outputs": [],
      "stateMutability": "nonpayable",
      "type": "function"
    },
    {
      "inputs": [
        {
          "internalType": "address",
          "name": "contributor",
          "type": "address"
        },
        {
          "internalType": "uint256",
          "name": "weiAmount",
          "type": "uint256"
        }
      ],
      "name": "reverse",
      "outputs": [],
      "stateMutability": "nonpayable",
      "type": "function"
    },
    {
      "inputs": [],
      "name": "rewardsAssigned",
      "outputs": [
        {
          "internalType": "uint256",
          "name": "",
          "type": "uint256"
        }
      ],
      "stateMutability": "view",
      "type": "function"
    },
    {
      "inputs": [
        {
          "internalType": "address",
          "name": "contributor",
          "type": "address"
        }
      ],
      "name": "rewardsOf",
      "outputs": [
        {
          "internalType": "uint256",
          "name": "",
          "type": "uint256"
        }
      ],
      "stateMutability": "view",
      "type": "function"
    },
    {
      "inputs": [],
      "name": "rewardsReleased",
      "outputs": [
        {
          "internalType": "uint256",
          "name": "",
          "type": "uint256"
        }
      ],
      "stateMutability": "view",
      "type": "function"
    },
    {
      "inputs": [
        {
          "internalType": "address",
          "name": "newOwner",
          "type": "address"
        }
      ],
      "name": "transferOwnership",
      "outputs": [],
      "stateMutability": "nonpayable",
      "type": "function"
    },
    {
      "inputs": [],
      "name": "unpause",
      "outputs": [],
      "stateMutability": "nonpayable",
      "type": "function"
    },
    {
      "inputs": [
        {
          "internalType": "address payable",
          "name": "wallet",
          "type": "address"
        }
      ],
      "name": "withdraw",
      "outputs": [],
      "stateMutability": "nonpayable",
      "type": "function"
    }
  ],
  "bytecode": "0x60806040523480156200001157600080fd5b506040516200224f3803806200224f833981810160405281019062000037919062000265565b60008060006101000a81548160ff02191690831515021790555062000071620000656200013d60201b60201c565b6200014560201b60201c565b600073ffffffffffffffffffffffffffffffffffffffff168173ffffffffffffffffffffffffffffffffffffffff161415620000e4576040517f08c379a0000000000000000000000000000000000000000000000000000000008152600401620000db90620002b8565b60405180910390fd5b80600160006101000a81548173ffffffffffffffffffffffffffffffffffffffff021916908373ffffffffffffffffffffffffffffffffffffffff16021790555062000136336200020a60201b60201c565b5062000388565b600033905090565b60008060019054906101000a900473ffffffffffffffffffffffffffffffffffffffff16905081600060016101000a81548173ffffffffffffffffffffffffffffffffffffffff021916908373ffffffffffffffffffffffffffffffffffffffff1602179055508173ffffffffffffffffffffffffffffffffffffffff168173ffffffffffffffffffffffffffffffffffffffff167f8be0079c531659141344cd1fd0a4f28419497f9722a3daafe3b4186f6b6457e060405160405180910390a35050565b80600260006101000a81548173ffffffffffffffffffffffffffffffffffffffff021916908373ffffffffffffffffffffffffffffffffffffffff16021790555050565b6000815190506200025f816200036e565b92915050565b6000602082840312156200027857600080fd5b600062000288848285016200024e565b91505092915050565b6000620002a0602483620002da565b9150620002ad826200031f565b604082019050919050565b60006020820190508181036000830152620002d38162000291565b9050919050565b600082825260208201905092915050565b6000620002f882620002ff565b9050919050565b600073ffffffffffffffffffffffffffffffffffffffff82169050919050565b7f4e65656420746f20737570706c7920612076616c696420746f6b656e2061646460008201527f7265737300000000000000000000000000000000000000000000000000000000602082015250565b6200037981620002eb565b81146200038557600080fd5b50565b611eb780620003986000396000f3fe608060405234801561001057600080fd5b50600436106101005760003560e01c806363ef65a511610097578063be76048811610066578063be7604881461023b578063c7674fa814610257578063f2fde38b14610275578063f8b30ebc1461029157610100565b806363ef65a5146101eb578063715018a6146102095780638456cb59146102135780638da5cb5b1461021d57610100565b8063479ba7ae116100d3578063479ba7ae14610163578063481c6a751461019357806351cff8d9146101b15780635c975abb146101cd57610100565b80630357371d146101055780632126a923146101215780632d2dcc481461013d5780633f4ba83a14610159575b600080fd5b61011f600480360381019061011a919061155d565b6102af565b005b61013b60048036038101906101369190611599565b6105fb565b005b6101576004803603810190610152919061150b565b610840565b005b610161610938565b005b61017d6004803603810190610178919061150b565b6109be565b60405161018a9190611a29565b60405180910390f35b61019b610a07565b6040516101a8919061182a565b60405180910390f35b6101cb60048036038101906101c69190611534565b610a31565b005b6101d5610cf2565b6040516101e2919061186e565b60405180910390f35b6101f3610d08565b6040516102009190611a29565b60405180910390f35b610211610d12565b005b61021b610d9a565b005b610225610e20565b604051610232919061182a565b60405180910390f35b61025560048036038101906102509190611599565b610e49565b005b61025f61108d565b60405161026c9190611a29565b60405180910390f35b61028f600480360381019061028a919061150b565b61114c565b005b610299611244565b6040516102a69190611a29565b60405180910390f35b3373ffffffffffffffffffffffffffffffffffffffff166102ce610a07565b73ffffffffffffffffffffffffffffffffffffffff1614610324576040517f08c379a000000000000000000000000000000000000000000000000000000000815260040161031b906119e9565b60405180910390fd5b61032c610cf2565b1561036c576040517f08c379a000000000000000000000000000000000000000000000000000000000815260040161036390611929565b60405180910390fd5b600073ffffffffffffffffffffffffffffffffffffffff168273ffffffffffffffffffffffffffffffffffffffff1614156103dc576040517f08c379a00000000000000000000000000000000000000000000000000000000081526004016103d390611889565b60405180910390fd5b6000811180156103f457506103f0826109be565b8111155b610433576040517f08c379a000000000000000000000000000000000000000000000000000000000815260040161042a90611a09565b60405180910390fd5b80600360008473ffffffffffffffffffffffffffffffffffffffff1673ffffffffffffffffffffffffffffffffffffffff16815260200190815260200160002060008282546104829190611aab565b92505081905550806004600082825461049b9190611aab565b9250508190555080600560008282546104b49190611a55565b92505081905550600160009054906101000a900473ffffffffffffffffffffffffffffffffffffffff1673ffffffffffffffffffffffffffffffffffffffff1663a9059cbb83836040518363ffffffff1660e01b8152600401610518929190611845565b602060405180830381600087803b15801561053257600080fd5b505af1158015610546573d6000803e3d6000fd5b505050506040513d601f19601f8201168201806040525081019061056a91906115d5565b6105a9576040517f08c379a00000000000000000000000000000000000000000000000000000000081526004016105a090611989565b60405180910390fd5b8173ffffffffffffffffffffffffffffffffffffffff167f15d76a0e45773d9864243be4bd453640dc148c17671c168aead15be4c774de6e826040516105ef9190611a29565b60405180910390a25050565b3373ffffffffffffffffffffffffffffffffffffffff1661061a610a07565b73ffffffffffffffffffffffffffffffffffffffff1614610670576040517f08c379a0000000000000000000000000000000000000000000000000000000008152600401610667906119e9565b60405180910390fd5b610678610cf2565b156106b8576040517f08c379a00000000000000000000000000000000000000000000000000000000081526004016106af90611929565b60405180910390fd5b600073ffffffffffffffffffffffffffffffffffffffff168273ffffffffffffffffffffffffffffffffffffffff161415610728576040517f08c379a000000000000000000000000000000000000000000000000000000000815260040161071f90611889565b60405180910390fd5b600081118015610740575061073c826109be565b8111155b61077f576040517f08c379a0000000000000000000000000000000000000000000000000000000008152600401610776906118a9565b60405180910390fd5b80600360008473ffffffffffffffffffffffffffffffffffffffff1673ffffffffffffffffffffffffffffffffffffffff16815260200190815260200160002060008282546107ce9190611aab565b9250508190555080600460008282546107e79190611aab565b925050819055508173ffffffffffffffffffffffffffffffffffffffff167fcb35aa5b47438afa1cfc221c284cac4281337a6cf0a98e31b41228c9040912fc826040516108349190611a29565b60405180910390a25050565b61084861124e565b73ffffffffffffffffffffffffffffffffffffffff16610866610e20565b73ffffffffffffffffffffffffffffffffffffffff16146108bc576040517f08c379a00000000000000000000000000000000000000000000000000000000081526004016108b3906119a9565b60405180910390fd5b600073ffffffffffffffffffffffffffffffffffffffff168173ffffffffffffffffffffffffffffffffffffffff16141561092c576040517f08c379a000000000000000000000000000000000000000000000000000000000815260040161092390611949565b60405180910390fd5b61093581611256565b50565b61094061124e565b73ffffffffffffffffffffffffffffffffffffffff1661095e610e20565b73ffffffffffffffffffffffffffffffffffffffff16146109b4576040517f08c379a00000000000000000000000000000000000000000000000000000000081526004016109ab906119a9565b60405180910390fd5b6109bc61129a565b565b6000600360008373ffffffffffffffffffffffffffffffffffffffff1673ffffffffffffffffffffffffffffffffffffffff168152602001908152602001600020549050919050565b6000600260009054906101000a900473ffffffffffffffffffffffffffffffffffffffff16905090565b610a3961124e565b73ffffffffffffffffffffffffffffffffffffffff16610a57610e20565b73ffffffffffffffffffffffffffffffffffffffff1614610aad576040517f08c379a0000000000000000000000000000000000000000000000000000000008152600401610aa4906119a9565b60405180910390fd5b6000610ab761108d565b9050600081118015610b735750600160009054906101000a900473ffffffffffffffffffffffffffffffffffffffff1673ffffffffffffffffffffffffffffffffffffffff166370a08231306040518263ffffffff1660e01b8152600401610b1f919061182a565b60206040518083038186803b158015610b3757600080fd5b505afa158015610b4b573d6000803e3d6000fd5b505050506040513d601f19601f82011682018060405250810190610b6f91906115fe565b8111155b610bb2576040517f08c379a0000000000000000000000000000000000000000000000000000000008152600401610ba990611969565b60405180910390fd5b600160009054906101000a900473ffffffffffffffffffffffffffffffffffffffff1673ffffffffffffffffffffffffffffffffffffffff1663a9059cbb83836040518363ffffffff1660e01b8152600401610c0f929190611845565b602060405180830381600087803b158015610c2957600080fd5b505af1158015610c3d573d6000803e3d6000fd5b505050506040513d601f19601f82011682018060405250810190610c6191906115d5565b610ca0576040517f08c379a0000000000000000000000000000000000000000000000000000000008152600401610c9790611909565b60405180910390fd5b8173ffffffffffffffffffffffffffffffffffffffff167f44cc22e2a72fe54daca38ff0faa55c52b7ceb78759bf43d2e8657ab68b17eeae82604051610ce69190611a29565b60405180910390a25050565b60008060009054906101000a900460ff16905090565b6000600554905090565b610d1a61124e565b73ffffffffffffffffffffffffffffffffffffffff16610d38610e20565b73ffffffffffffffffffffffffffffffffffffffff1614610d8e576040517f08c379a0000000000000000000000000000000000000000000000000000000008152600401610d85906119a9565b60405180910390fd5b610d98600061133b565b565b610da261124e565b73ffffffffffffffffffffffffffffffffffffffff16610dc0610e20565b73ffffffffffffffffffffffffffffffffffffffff1614610e16576040517f08c379a0000000000000000000000000000000000000000000000000000000008152600401610e0d906119a9565b60405180910390fd5b610e1e611400565b565b60008060019054906101000a900473ffffffffffffffffffffffffffffffffffffffff16905090565b3373ffffffffffffffffffffffffffffffffffffffff16610e68610a07565b73ffffffffffffffffffffffffffffffffffffffff1614610ebe576040517f08c379a0000000000000000000000000000000000000000000000000000000008152600401610eb5906119e9565b60405180910390fd5b610ec6610cf2565b15610f06576040517f08c379a0000000000000000000000000000000000000000000000000000000008152600401610efd90611929565b60405180910390fd5b600073ffffffffffffffffffffffffffffffffffffffff168273ffffffffffffffffffffffffffffffffffffffff161415610f76576040517f08c379a0000000000000000000000000000000000000000000000000000000008152600401610f6d90611889565b60405180910390fd5b600081118015610f8d5750610f8961108d565b8111155b610fcc576040517f08c379a0000000000000000000000000000000000000000000000000000000008152600401610fc3906119c9565b60405180910390fd5b80600360008473ffffffffffffffffffffffffffffffffffffffff1673ffffffffffffffffffffffffffffffffffffffff168152602001908152602001600020600082825461101b9190611a55565b9250508190555080600460008282546110349190611a55565b925050819055508173ffffffffffffffffffffffffffffffffffffffff167f60b6dcfb8b1c65055f900ae35dc080d33cd545590a9fc0e6fd8755c13d26ef23826040516110819190611a29565b60405180910390a25050565b6000600454600160009054906101000a900473ffffffffffffffffffffffffffffffffffffffff1673ffffffffffffffffffffffffffffffffffffffff166370a08231306040518263ffffffff1660e01b81526004016110ed919061182a565b60206040518083038186803b15801561110557600080fd5b505afa158015611119573d6000803e3d6000fd5b505050506040513d601f19601f8201168201806040525081019061113d91906115fe565b6111479190611aab565b905090565b61115461124e565b73ffffffffffffffffffffffffffffffffffffffff16611172610e20565b73ffffffffffffffffffffffffffffffffffffffff16146111c8576040517f08c379a00000000000000000000000000000000000000000000000000000000081526004016111bf906119a9565b60405180910390fd5b600073ffffffffffffffffffffffffffffffffffffffff168173ffffffffffffffffffffffffffffffffffffffff161415611238576040517f08c379a000000000000000000000000000000000000000000000000000000000815260040161122f906118e9565b60405180910390fd5b6112418161133b565b50565b6000600454905090565b600033905090565b80600260006101000a81548173ffffffffffffffffffffffffffffffffffffffff021916908373ffffffffffffffffffffffffffffffffffffffff16021790555050565b6112a2610cf2565b6112e1576040517f08c379a00000000000000000000000000000000000000000000000000000000081526004016112d8906118c9565b60405180910390fd5b60008060006101000a81548160ff0219169083151502179055507f5db9ee0a495bf2e6ff9c91a7834c1ba4fdd244a5e8aa4e537bd38aeae4b073aa61132461124e565b604051611331919061182a565b60405180910390a1565b60008060019054906101000a900473ffffffffffffffffffffffffffffffffffffffff16905081600060016101000a81548173ffffffffffffffffffffffffffffffffffffffff021916908373ffffffffffffffffffffffffffffffffffffffff1602179055508173ffffffffffffffffffffffffffffffffffffffff168173ffffffffffffffffffffffffffffffffffffffff167f8be0079c531659141344cd1fd0a4f28419497f9722a3daafe3b4186f6b6457e060405160405180910390a35050565b611408610cf2565b15611448576040517f08c379a000000000000000000000000000000000000000000000000000000000815260040161143f90611929565b60405180910390fd5b60016000806101000a81548160ff0219169083151502179055507f62e78cea01bee320cd4e420270b5ea74000d11b0c9f74754ebdbfc544b05a25861148b61124e565b604051611498919061182a565b60405180910390a1565b6000813590506114b181611e25565b92915050565b6000813590506114c681611e3c565b92915050565b6000815190506114db81611e53565b92915050565b6000813590506114f081611e6a565b92915050565b60008151905061150581611e6a565b92915050565b60006020828403121561151d57600080fd5b600061152b848285016114a2565b91505092915050565b60006020828403121561154657600080fd5b6000611554848285016114b7565b91505092915050565b6000806040838503121561157057600080fd5b600061157e858286016114b7565b925050602061158f858286016114e1565b9150509250929050565b600080604083850312156115ac57600080fd5b60006115ba858286016114a2565b92505060206115cb858286016114e1565b9150509250929050565b6000602082840312156115e757600080fd5b60006115f5848285016114cc565b91505092915050565b60006020828403121561161057600080fd5b600061161e848285016114f6565b91505092915050565b61163081611b39565b82525050565b61163f81611adf565b82525050565b61164e81611b03565b82525050565b6000611661601b83611a44565b915061166c82611b9e565b602082019050919050565b6000611684601983611a44565b915061168f82611bc7565b602082019050919050565b60006116a7601483611a44565b91506116b282611bf0565b602082019050919050565b60006116ca602683611a44565b91506116d582611c19565b604082019050919050565b60006116ed601a83611a44565b91506116f882611c68565b602082019050919050565b6000611710601083611a44565b915061171b82611c91565b602082019050919050565b6000611733602983611a44565b915061173e82611cba565b604082019050919050565b6000611756601783611a44565b915061176182611d09565b602082019050919050565b6000611779601f83611a44565b915061178482611d32565b602082019050919050565b600061179c602083611a44565b91506117a782611d5b565b602082019050919050565b60006117bf601883611a44565b91506117ca82611d84565b602082019050919050565b60006117e2602283611a44565b91506117ed82611dad565b604082019050919050565b6000611805601983611a44565b915061181082611dfc565b602082019050919050565b61182481611b2f565b82525050565b600060208201905061183f6000830184611636565b92915050565b600060408201905061185a6000830185611627565b611867602083018461181b565b9392505050565b60006020820190506118836000830184611645565b92915050565b600060208201905081810360008301526118a281611654565b9050919050565b600060208201905081810360008301526118c281611677565b9050919050565b600060208201905081810360008301526118e28161169a565b9050919050565b60006020820190508181036000830152611902816116bd565b9050919050565b60006020820190508181036000830152611922816116e0565b9050919050565b6000602082019050818103600083015261194281611703565b9050919050565b6000602082019050818103600083015261196281611726565b9050919050565b6000602082019050818103600083015261198281611749565b9050919050565b600060208201905081810360008301526119a28161176c565b9050919050565b600060208201905081810360008301526119c28161178f565b9050919050565b600060208201905081810360008301526119e2816117b2565b9050919050565b60006020820190508181036000830152611a02816117d5565b9050919050565b60006020820190508181036000830152611a22816117f8565b9050919050565b6000602082019050611a3e600083018461181b565b92915050565b600082825260208201905092915050565b6000611a6082611b2f565b9150611a6b83611b2f565b9250827fffffffffffffffffffffffffffffffffffffffffffffffffffffffffffffffff03821115611aa057611a9f611b6f565b5b828201905092915050565b6000611ab682611b2f565b9150611ac183611b2f565b925082821015611ad457611ad3611b6f565b5b828203905092915050565b6000611aea82611b0f565b9050919050565b6000611afc82611b0f565b9050919050565b60008115159050919050565b600073ffffffffffffffffffffffffffffffffffffffff82169050919050565b6000819050919050565b6000611b4482611b4b565b9050919050565b6000611b5682611b5d565b9050919050565b6000611b6882611b0f565b9050919050565b7f4e487b7100000000000000000000000000000000000000000000000000000000600052601160045260246000fd5b7f496e76616c696420636f6e7472696275746f7220616464726573730000000000600082015250565b7f496e76616c696420616d6f756e7420746f207265766572736500000000000000600082015250565b7f5061757361626c653a206e6f7420706175736564000000000000000000000000600082015250565b7f4f776e61626c653a206e6577206f776e657220697320746865207a65726f206160008201527f6464726573730000000000000000000000000000000000000000000000000000602082015250565b7f5769746864726177616c207472616e73666572206661696c6564000000000000600082015250565b7f5061757361626c653a2070617573656400000000000000000000000000000000600082015250565b7f43616e6e6f742061737369676e206d616e6167657220746f20746865207a657260008201527f6f20616464726573730000000000000000000000000000000000000000000000602082015250565b7f4e6f20776974686472617761626c652062616c616e6365000000000000000000600082015250565b7f526577617264732072656c65617365207472616e73666572206661696c656400600082015250565b7f4f776e61626c653a2063616c6c6572206973206e6f7420746865206f776e6572600082015250565b7f496e76616c696420616d6f756e7420746f2061737369676e0000000000000000600082015250565b7f43616c6c6572206973206e6f74207468652061737369676e6564206d616e616760008201527f6572000000000000000000000000000000000000000000000000000000000000602082015250565b7f496e76616c696420616d6f756e7420746f2072656c6561736500000000000000600082015250565b611e2e81611adf565b8114611e3957600080fd5b50565b611e4581611af1565b8114611e5057600080fd5b50565b611e5c81611b03565b8114611e6757600080fd5b50565b611e7381611b2f565b8114611e7e57600080fd5b5056fea26469706673582212203bc4126a88169c7201a3021b76a27885755706af6205ef2a05e4bded514ac06b64736f6c63430008040033",
  "linkReferences": {},
  "deployedLinkReferences": {}
}